{
  "contractName": "Auction",
  "abi": [
    {
      "constant": true,
      "inputs": [
        {
          "name": "",
          "type": "address"
        }
      ],
      "name": "bids",
      "outputs": [
        {
          "name": "",
          "type": "uint256"
        }
      ],
      "payable": false,
      "stateMutability": "view",
      "type": "function",
      "signature": "0x62ea82db"
    },
    {
      "constant": true,
      "inputs": [
        {
          "name": "",
          "type": "address"
        }
      ],
      "name": "quantities",
      "outputs": [
        {
          "name": "",
          "type": "uint256"
        }
      ],
      "payable": false,
      "stateMutability": "view",
      "type": "function",
      "signature": "0xb7fdf4c3"
    },
    {
      "constant": true,
      "inputs": [
        {
          "name": "",
          "type": "uint256"
        }
      ],
      "name": "addresses",
      "outputs": [
        {
          "name": "",
          "type": "address"
        }
      ],
      "payable": false,
      "stateMutability": "view",
      "type": "function",
      "signature": "0xedf26d9b"
    },
    {
      "constant": false,
      "inputs": [
        {
          "name": "bid",
          "type": "uint256"
        }
      ],
      "name": "bid",
      "outputs": [
        {
          "name": "",
          "type": "uint256"
        }
      ],
      "payable": false,
      "stateMutability": "nonpayable",
      "type": "function",
      "signature": "0x454a2ab3"
    },
    {
      "constant": true,
      "inputs": [],
      "name": "get",
      "outputs": [
        {
          "name": "",
          "type": "uint256"
        }
      ],
      "payable": false,
      "stateMutability": "view",
      "type": "function",
      "signature": "0x6d4ce63c"
    }
  ],
  "bytecode": "0x6080604052600c600055600360015534801561001a57600080fd5b506103478061002a6000396000f30060806040526004361061006d576000357c0100000000000000000000000000000000000000000000000000000000900463ffffffff168063454a2ab31461007257806362ea82db146100b35780636d4ce63c1461010a578063b7fdf4c314610135578063edf26d9b1461018c575b600080fd5b34801561007e57600080fd5b5061009d600480360381019080803590602001909291905050506101f9565b6040518082815260200191505060405180910390f35b3480156100bf57600080fd5b506100f4600480360381019080803573ffffffffffffffffffffffffffffffffffffffff169060200190929190505050610266565b6040518082815260200191505060405180910390f35b34801561011657600080fd5b5061011f61027e565b6040518082815260200191505060405180910390f35b34801561014157600080fd5b50610176600480360381019080803573ffffffffffffffffffffffffffffffffffffffff1690602001909291905050506102c5565b6040518082815260200191505060405180910390f35b34801561019857600080fd5b506101b7600480360381019080803590602001909291905050506102dd565b604051808273ffffffffffffffffffffffffffffffffffffffff1673ffffffffffffffffffffffffffffffffffffffff16815260200191505060405180910390f35b6000816001541115801561020f57506000548211155b151561021a57600080fd5b81600460003373ffffffffffffffffffffffffffffffffffffffff1673ffffffffffffffffffffffffffffffffffffffff16815260200190815260200160002081905550819050919050565b60046020528060005260406000206000915090505481565b6000600460003373ffffffffffffffffffffffffffffffffffffffff1673ffffffffffffffffffffffffffffffffffffffff16815260200190815260200160002054905090565b60056020528060005260406000206000915090505481565b6003818154811015156102ec57fe5b906000526020600020016000915054906101000a900473ffffffffffffffffffffffffffffffffffffffff16815600a165627a7a72305820b2152061d2919a99a72baf7ab881a568ab04b6ba07b381ec8b7cb07da56a3ca00029",
  "source": " pragma solidity ^0.4.24;\n\ncontract Auction {\n\n  /*********************\n   * Storage Variables *\n   *********************/\n\n  /* Static */\n\n  // Utility offering rate.\n  uint utilityRate = 12;\n  // Utility buyback rate.\n  uint buybackRate = 3;\n  // Electricity supply.\n  uint supply;\n\n  /* State */\n\n  // Addresses.\n  address[] public addresses;\n  // Bids.\n  mapping (address => uint) public bids;\n  // Quantities.\n  mapping (address => uint) public quantities;\n\n  /*************\n   * Functions *\n   *************/\n\n  // Place bid.\n  function bid(uint bid) public returns (uint) {\n    // Bid must be between the buyback rate and grid price.\n    require(buybackRate <= bid && bid <= utilityRate);\n    // Place bid.\n    bids[msg.sender] = bid;\n    // Return bid value.\n    return bid;\n  }\n\n  // View bid.\n  function get() public view returns (uint) {\n    // Return bid for this member.\n    return bids[msg.sender];\n  }\n}",
  "sourcePath": "/Users/ParkerWild/github/p2p-energy-dapp/contracts/Auction.sol",
  "compiler": {
    "name": "solc",
    "version": "0.4.24+commit.e67f0147.Emscripten.clang"
  },
  "schemaVersion": "3.0.5",
  "updatedAt": "2019-05-02T17:15:48.922Z",
  "devdoc": {
    "methods": {}
  },
  "userdoc": {
    "methods": {
      "bid(uint256)": {
        "notice": "*********** Functions *************"
      }
    }
  }
}