{
  "contractName": "Auction1B1P",
  "abi": [
    {
      "constant": true,
      "inputs": [],
      "name": "initialPrice",
      "outputs": [
        {
          "name": "",
          "type": "bool"
        }
      ],
      "payable": false,
      "stateMutability": "view",
      "type": "function"
    },
    {
      "constant": true,
      "inputs": [],
      "name": "utilityBuyBackRate",
      "outputs": [
        {
          "name": "",
          "type": "uint256"
        }
      ],
      "payable": false,
      "stateMutability": "view",
      "type": "function"
    },
    {
      "constant": true,
      "inputs": [
        {
          "name": "",
          "type": "address"
        }
      ],
      "name": "bids",
      "outputs": [
        {
          "name": "",
          "type": "uint256"
        }
      ],
      "payable": false,
      "stateMutability": "view",
      "type": "function"
    },
    {
      "constant": true,
      "inputs": [],
      "name": "increaseTimeIfBidBeforeEnd",
      "outputs": [
        {
          "name": "",
          "type": "uint256"
        }
      ],
      "payable": false,
      "stateMutability": "view",
      "type": "function"
    },
    {
      "constant": true,
      "inputs": [],
      "name": "owner",
      "outputs": [
        {
          "name": "",
          "type": "address"
        }
      ],
      "payable": false,
      "stateMutability": "view",
      "type": "function"
    },
    {
      "constant": true,
      "inputs": [],
      "name": "finalized",
      "outputs": [
        {
          "name": "",
          "type": "bool"
        }
      ],
      "payable": false,
      "stateMutability": "view",
      "type": "function"
    },
    {
      "constant": true,
      "inputs": [],
      "name": "increaseTimeBy",
      "outputs": [
        {
          "name": "",
          "type": "uint256"
        }
      ],
      "payable": false,
      "stateMutability": "view",
      "type": "function"
    },
    {
      "constant": true,
      "inputs": [
        {
          "name": "",
          "type": "uint256"
        }
      ],
      "name": "accountsList",
      "outputs": [
        {
          "name": "",
          "type": "address"
        }
      ],
      "payable": false,
      "stateMutability": "view",
      "type": "function"
    },
    {
      "constant": true,
      "inputs": [],
      "name": "winner",
      "outputs": [
        {
          "name": "",
          "type": "address"
        }
      ],
      "payable": false,
      "stateMutability": "view",
      "type": "function"
    },
    {
      "inputs": [],
      "payable": false,
      "stateMutability": "nonpayable",
      "type": "constructor"
    },
    {
      "payable": true,
      "stateMutability": "payable",
      "type": "fallback"
    },
    {
      "anonymous": false,
      "inputs": [
        {
          "indexed": true,
          "name": "bidder",
          "type": "address"
        },
        {
          "indexed": false,
          "name": "value",
          "type": "uint256"
        }
      ],
      "name": "BidEvent",
      "type": "event"
    },
    {
      "anonymous": false,
      "inputs": [
        {
          "indexed": true,
          "name": "bidder",
          "type": "address"
        },
        {
          "indexed": false,
          "name": "value",
          "type": "uint256"
        }
      ],
      "name": "Refund",
      "type": "event"
    },
    {
      "constant": true,
      "inputs": [],
      "name": "getAccountListLenght",
      "outputs": [
        {
          "name": "",
          "type": "uint256"
        }
      ],
      "payable": false,
      "stateMutability": "view",
      "type": "function"
    },
    {
      "constant": false,
      "inputs": [],
      "name": "bid",
      "outputs": [],
      "payable": true,
      "stateMutability": "payable",
      "type": "function"
    },
    {
      "constant": false,
      "inputs": [],
      "name": "finalize",
      "outputs": [],
      "payable": false,
      "stateMutability": "nonpayable",
      "type": "function"
    },
    {
      "constant": false,
      "inputs": [],
      "name": "refund",
      "outputs": [],
      "payable": false,
      "stateMutability": "nonpayable",
      "type": "function"
    },
    {
      "constant": false,
      "inputs": [
        {
          "name": "addr",
          "type": "address"
        }
      ],
      "name": "refundOnBehalf",
      "outputs": [],
      "payable": false,
      "stateMutability": "nonpayable",
      "type": "function"
    }
  ],
  "bytecode": "0x608060405260018060006101000a81548160ff02191690831515021790555060006001806101000a81548160ff021916908315150217905550620151806005556201518060065534801561005257600080fd5b5033600160026101000a81548173ffffffffffffffffffffffffffffffffffffffff021916908373ffffffffffffffffffffffffffffffffffffffff1602179055506001600081905550610da9806100ab6000396000f3006080604052600436106100d0576000357c0100000000000000000000000000000000000000000000000000000000900463ffffffff1680631998aeef146100f15780631d0806ae146100fb5780634bb278f31461012a5780634d4d52aa146101415780635104cb5c1461016c578063590e1ae3146101af57806362ea82db146101c657806366aef95b1461021d5780638da5cb5b14610248578063b3f05b971461029f578063bd47c1a2146102ce578063c6eeeb04146102f9578063cf9b3c8d14610324578063dfbf53ae14610391575b60003414156100e6576100e16103e8565b6100ef565b6100ee6103f3565b5b005b6100f96103f3565b005b34801561010757600080fd5b506101106107aa565b604051808215151515815260200191505060405180910390f35b34801561013657600080fd5b5061013f6107bd565b005b34801561014d57600080fd5b50610156610914565b6040518082815260200191505060405180910390f35b34801561017857600080fd5b506101ad600480360381019080803573ffffffffffffffffffffffffffffffffffffffff16906020019092919050505061091a565b005b3480156101bb57600080fd5b506101c46103e8565b005b3480156101d257600080fd5b50610207600480360381019080803573ffffffffffffffffffffffffffffffffffffffff1690602001909291905050506109eb565b6040518082815260200191505060405180910390f35b34801561022957600080fd5b50610232610a03565b6040518082815260200191505060405180910390f35b34801561025457600080fd5b5061025d610a09565b604051808273ffffffffffffffffffffffffffffffffffffffff1673ffffffffffffffffffffffffffffffffffffffff16815260200191505060405180910390f35b3480156102ab57600080fd5b506102b4610a2f565b604051808215151515815260200191505060405180910390f35b3480156102da57600080fd5b506102e3610a41565b6040518082815260200191505060405180910390f35b34801561030557600080fd5b5061030e610a4e565b6040518082815260200191505060405180910390f35b34801561033057600080fd5b5061034f60048036038101908080359060200190929190505050610a54565b604051808273ffffffffffffffffffffffffffffffffffffffff1673ffffffffffffffffffffffffffffffffffffffff16815260200191505060405180910390f35b34801561039d57600080fd5b506103a6610a92565b604051808273ffffffffffffffffffffffffffffffffffffffff1673ffffffffffffffffffffffffffffffffffffffff16815260200191505060405180910390f35b6103f133610ab8565b565b6000600360003373ffffffffffffffffffffffffffffffffffffffff1673ffffffffffffffffffffffffffffffffffffffff168152602001908152602001600020541415156104aa576040517f08c379a00000000000000000000000000000000000000000000000000000000081526004018080602001828103825260158152602001807f796f752063616e206f6e6c7920626964206f6e6365000000000000000000000081525060200191505060405180910390fd5b34600360003373ffffffffffffffffffffffffffffffffffffffff1673ffffffffffffffffffffffffffffffffffffffff1681526020019081526020016000208190555060043390806001815401808255809150509060018203906000526020600020016000909192909190916101000a81548173ffffffffffffffffffffffffffffffffffffffff021916908373ffffffffffffffffffffffffffffffffffffffff16021790555050600054600360003373ffffffffffffffffffffffffffffffffffffffff1673ffffffffffffffffffffffffffffffffffffffff1681526020019081526020016000205410151515610633576040517f08c379a000000000000000000000000000000000000000000000000000000000815260040180806020018281038252602e8152602001807f62696420746f6f206c6f772c206d696e696d756d20697320746865207574696c81526020017f6974794275794261636b5261746500000000000000000000000000000000000081525060400191505060405180910390fd5b6000600160006101000a81548160ff02191690831515021790555060036000600260009054906101000a900473ffffffffffffffffffffffffffffffffffffffff1673ffffffffffffffffffffffffffffffffffffffff1673ffffffffffffffffffffffffffffffffffffffff16815260200190815260200160002054600360003373ffffffffffffffffffffffffffffffffffffffff1673ffffffffffffffffffffffffffffffffffffffff1681526020019081526020016000205411156107385733600260006101000a81548173ffffffffffffffffffffffffffffffffffffffff021916908373ffffffffffffffffffffffffffffffffffffffff1602179055505b600260009054906101000a900473ffffffffffffffffffffffffffffffffffffffff1673ffffffffffffffffffffffffffffffffffffffff167f0d993d4f8a84158f5329713d6d13ef54e77b325040c887c8b3e565cfd0cd3e21346040518082815260200191505060405180910390a2565b600160009054906101000a900460ff1681565b600015156001809054906101000a900460ff161515141515610847576040517f08c379a00000000000000000000000000000000000000000000000000000000081526004018080602001828103825260168152602001807f63616e207769746864726177206f6e6c79206f6e63650000000000000000000081525060200191505060405180910390fd5b60001515600160009054906101000a900460ff1615151415156108f8576040517f08c379a00000000000000000000000000000000000000000000000000000000081526004018080602001828103825260248152602001807f63616e207769746864726177206f6e6c7920696620746865726520776572652081526020017f626964730000000000000000000000000000000000000000000000000000000081525060400191505060405180910390fd5b60018060016101000a81548160ff021916908315150217905550565b60005481565b3373ffffffffffffffffffffffffffffffffffffffff16600160029054906101000a900473ffffffffffffffffffffffffffffffffffffffff1673ffffffffffffffffffffffffffffffffffffffff161415156109df576040517f08c379a000000000000000000000000000000000000000000000000000000000815260040180806020018281038252600a8152602001807f6f6e6c79206f776e65720000000000000000000000000000000000000000000081525060200191505060405180910390fd5b6109e881610ab8565b50565b60036020528060005260406000206000915090505481565b60055481565b600160029054906101000a900473ffffffffffffffffffffffffffffffffffffffff1681565b6001809054906101000a900460ff1681565b6000600480549050905090565b60065481565b600481815481101515610a6357fe5b906000526020600020016000915054906101000a900473ffffffffffffffffffffffffffffffffffffffff1681565b600260009054906101000a900473ffffffffffffffffffffffffffffffffffffffff1681565b6000600260009054906101000a900473ffffffffffffffffffffffffffffffffffffffff1673ffffffffffffffffffffffffffffffffffffffff168273ffffffffffffffffffffffffffffffffffffffff1614151515610b80576040517f08c379a00000000000000000000000000000000000000000000000000000000081526004018080602001828103825260148152602001807f77696e6e65722063616e6e6f7420726566756e6400000000000000000000000081525060200191505060405180910390fd5b6000600360008473ffffffffffffffffffffffffffffffffffffffff1673ffffffffffffffffffffffffffffffffffffffff16815260200190815260200160002054111515610c5d576040517f08c379a000000000000000000000000000000000000000000000000000000000815260040180806020018281038252602a8152602001807f726566756e6473206f6e6c7920616c6c6f77656420696620796f752073656e7481526020017f20736f6d657468696e670000000000000000000000000000000000000000000081525060400191505060405180910390fd5b600360008373ffffffffffffffffffffffffffffffffffffffff1673ffffffffffffffffffffffffffffffffffffffff1681526020019081526020016000205490506000600360008473ffffffffffffffffffffffffffffffffffffffff1673ffffffffffffffffffffffffffffffffffffffff168152602001908152602001600020819055508173ffffffffffffffffffffffffffffffffffffffff166108fc829081150290604051600060405180830381858888f19350505050158015610d2a573d6000803e3d6000fd5b508173ffffffffffffffffffffffffffffffffffffffff167fbb28353e4598c3b9199101a66e0989549b659a59a54d2c27fbb183f1932c8e6d826040518082815260200191505060405180910390a250505600a165627a7a72305820f8be5dba3dde0e0fb0dc6291415f0df3f9eb38a8218a9251011cb7f93c168e860029",
  "source": "pragma solidity ^0.4.24;\n\n// THIS IS A SEALED-BID FIRST PRICE AUCTION\ncontract Auction1B1P {\n\n  //string public description;\n  //string public instructions; // will be used for delivery address or email\n  uint public utilityBuyBackRate;\n  bool public initialPrice = true; // at first asking price is OK, then +25% required\n  //uint public timestampEnd;\n  //address public beneficiary;\n  bool public finalized = false;\n\n  address public owner;\n  address public winner;\n  mapping(address => uint) public bids;\n  address[] public accountsList;\n  function getAccountListLenght() public constant returns(uint) { return accountsList.length; } // lenght is not accessible from DApp, exposing convenience method: https://stackoverflow.com/questions/43016011/getting-the-length-of-public-array-variable-getter\n\n  uint public increaseTimeIfBidBeforeEnd = 24 * 60 * 60;\n  uint public increaseTimeBy = 24 * 60 * 60;\n\n  event BidEvent(address indexed bidder, uint value);//, uint timestamp); // cannot have event and struct with the same name\n  event Refund(address indexed bidder, uint value);//, uint timestamp);\n\n\n  modifier onlyOwner { require(owner == msg.sender, \"only owner\"); _; }\n  modifier onlyWinner { require(winner == msg.sender, \"only winner\"); _; }\n  //modifier ended { require(now > timestampEnd, \"not ended yet\"); _; }\n\n\n  //function setDescription(string _description) public onlyOwner() {\n  //  description = _description;\n  //}\n\n  // TODO: Override this method in the derived functions, think about on-chain / off-chain communication mechanism\n  //function setInstructions(string _instructions) public ended() onlyWinner()  {\n  //  instructions = _instructions;\n  //}\n\n  //constructor(uint _price, string _description, uint _timestampEnd, address _beneficiary) public {\n  //constructor(uint _utilityBuyBackRate, uint _timestampEnd, address _beneficiary) public {\n    //require(_timestampEnd > now, \"end of the auction must be in the future\");\n  constructor() public {\n    owner = msg.sender;\n    //utilityBuyBackRate = _utilityBuyBackRate;\n    utilityBuyBackRate = 1;\n    //description = _description;\n    //timestampEnd = _timestampEnd;\n    //beneficiary = _beneficiary;\n  }\n\n  // Same for all the derived contract, it's the implementation of refund() and bid() that differs\n  function() public payable {\n    if (msg.value == 0) {\n      refund();\n    } else {\n      bid();\n    }\n  }\n\n  function bid() public payable {\n    //require(now < timestampEnd, \"auction has ended\"); // sending ether only allowed before the end\n    require(bids[msg.sender] == 0, \"you can only bid once\");\n\n\n    bids[msg.sender] = msg.value;\n    accountsList.push(msg.sender); // this is the first bid, therefore adding\n\n    require(bids[msg.sender] >= utilityBuyBackRate, \"bid too low, minimum is the utilityBuyBackRate\");\n\n    //if (now > timestampEnd - increaseTimeIfBidBeforeEnd) {\n      //timestampEnd = now + increaseTimeBy;\n    //}\n\n    initialPrice = false;\n    //price = bids[msg.sender]; makes the bid the new low, not needed here\n    if (bids[msg.sender] > bids[winner]) {\n      winner = msg.sender;\n    }\n\n    emit BidEvent(winner, msg.value);//, now);\n  }\n\n  function finalize() public {//ended() onlyOwner() {\n    require(finalized == false, \"can withdraw only once\");\n    require(initialPrice == false, \"can withdraw only if there were bids\");\n\n    finalized = true;\n    //beneficiary.transfer(bids[winner]);\n  }\n\n  function refund(address addr) private {\n    require(addr != winner, \"winner cannot refund\");\n    require(bids[addr] > 0, \"refunds only allowed if you sent something\");\n\n    uint refundValue = bids[addr];\n    bids[addr] = 0;\n    addr.transfer(refundValue);\n\n    emit Refund(addr, refundValue);//, now);\n  }\n\n  function refund() public {\n    refund(msg.sender);\n  }\n\n  function refundOnBehalf(address addr) public onlyOwner() {\n    refund(addr);\n  }\n\n}\n",
  "sourcePath": "/Users/ParkerWild/github/p2p-energy-dapp/contracts/Auction1B1P.sol",
  "compiler": {
    "name": "solc",
    "version": "0.4.24+commit.e67f0147.Emscripten.clang"
  },
  "schemaVersion": "3.0.5",
  "updatedAt": "2019-03-25T01:28:53.174Z",
  "devdoc": {
    "methods": {}
  },
  "userdoc": {
    "methods": {}
  }
}