{
  "contractName": "Auction",
  "abi": [
    {
      "constant": true,
      "inputs": [
        {
          "name": "",
          "type": "uint256"
        }
      ],
      "name": "members",
      "outputs": [
        {
          "name": "",
          "type": "address"
        }
      ],
      "payable": false,
      "stateMutability": "view",
      "type": "function"
    },
    {
      "constant": true,
      "inputs": [
        {
          "name": "",
          "type": "address"
        }
      ],
      "name": "bids",
      "outputs": [
        {
          "name": "",
          "type": "uint256"
        }
      ],
      "payable": false,
      "stateMutability": "view",
      "type": "function"
    },
    {
      "constant": false,
      "inputs": [
        {
          "name": "value",
          "type": "uint256"
        }
      ],
      "name": "bid",
      "outputs": [
        {
          "name": "",
          "type": "uint256"
        }
      ],
      "payable": false,
      "stateMutability": "nonpayable",
      "type": "function"
    }
  ],
  "bytecode": "0x60806040526001600a55600a600b5534801561001a57600080fd5b506102458061002a6000396000f300608060405260043610610057576000357c0100000000000000000000000000000000000000000000000000000000900463ffffffff168063454a2ab31461005c5780635daf08ca1461009d57806362ea82db1461010a575b600080fd5b34801561006857600080fd5b5061008760048036038101908080359060200190929190505050610161565b6040518082815260200191505060405180910390f35b3480156100a957600080fd5b506100c8600480360381019080803590602001909291905050506101cc565b604051808273ffffffffffffffffffffffffffffffffffffffff1673ffffffffffffffffffffffffffffffffffffffff16815260200191505060405180910390f35b34801561011657600080fd5b5061014b600480360381019080803573ffffffffffffffffffffffffffffffffffffffff169060200190929190505050610201565b6040518082815260200191505060405180910390f35b600081600a541080156101755750600b5482105b151561018057600080fd5b81600c60003373ffffffffffffffffffffffffffffffffffffffff1673ffffffffffffffffffffffffffffffffffffffff16815260200190815260200160002081905550819050919050565b600081600a811015156101db57fe5b016000915054906101000a900473ffffffffffffffffffffffffffffffffffffffff1681565b600c60205280600052604060002060009150905054815600a165627a7a72305820b16d0dba9bd9e5f9ec809d922ca7e37e7d0d5dd41a98ff5e9524bc4c2c7dddfa0029",
  "source": " pragma solidity ^0.4.24;\n\ncontract Auction {\n\n  /**************\n   * Structures *\n   **************/\n\n  /*********************\n   * Storage Variables *\n   *********************/\n\n  /* Static */\n\n  // Members of the micro-grid\n  address[10] public members;\n\n  // Utility buyback rate\n  uint buybackRate = 1;\n\n  // Utility offering price\n  uint utilityPrice = 10;\n\n  /* State */\n\n  // Bids in current auction\n  mapping (address => uint) public bids;\n\n  /*************\n   * Functions *\n   *************/\n\n  // Place bid\n  function bid(uint value) public returns (uint) {\n    // Bid must be between the buyback rate and grid price\n    require(buybackRate < value && value < utilityPrice);\n\n    // Place bid\n    bids[msg.sender] = value;\n\n    // Return value\n    return value;\n  }\n\n  // Withdraw funds\n  /* function withdraw(uint value) public returns (uint) {\n\n  } */\n}",
  "sourcePath": "/Users/ParkerWild/github/p2p-energy-dapp/contracts/Auction.sol",
  "compiler": {
    "name": "solc",
    "version": "0.4.24+commit.e67f0147.Emscripten.clang"
  },
  "schemaVersion": "2.0.1",
  "updatedAt": "2018-12-03T03:01:18.016Z"
}