{
  "contractName": "Auction",
  "abi": [
    {
      "constant": true,
      "inputs": [
        {
          "name": "",
          "type": "address"
        }
      ],
      "name": "bids",
      "outputs": [
        {
          "name": "",
          "type": "uint256"
        }
      ],
      "payable": false,
      "stateMutability": "view",
      "type": "function",
      "signature": "0x62ea82db"
    },
    {
      "constant": false,
      "inputs": [
        {
          "name": "value",
          "type": "uint256"
        }
      ],
      "name": "bid",
      "outputs": [
        {
          "name": "",
          "type": "uint256"
        }
      ],
      "payable": false,
      "stateMutability": "nonpayable",
      "type": "function",
      "signature": "0x454a2ab3"
    },
    {
      "constant": true,
      "inputs": [],
      "name": "get",
      "outputs": [
        {
          "name": "",
          "type": "uint256"
        }
      ],
      "payable": false,
      "stateMutability": "view",
      "type": "function",
      "signature": "0x6d4ce63c"
    }
  ],
  "bytecode": "0x6080604052600c600055600360015534801561001a57600080fd5b506102158061002a6000396000f300608060405260043610610057576000357c0100000000000000000000000000000000000000000000000000000000900463ffffffff168063454a2ab31461005c57806362ea82db1461009d5780636d4ce63c146100f4575b600080fd5b34801561006857600080fd5b506100876004803603810190808035906020019092919050505061011f565b6040518082815260200191505060405180910390f35b3480156100a957600080fd5b506100de600480360381019080803573ffffffffffffffffffffffffffffffffffffffff16906020019092919050505061018a565b6040518082815260200191505060405180910390f35b34801561010057600080fd5b506101096101a2565b6040518082815260200191505060405180910390f35b600081600154108015610133575060005482105b151561013e57600080fd5b81600260003373ffffffffffffffffffffffffffffffffffffffff1673ffffffffffffffffffffffffffffffffffffffff16815260200190815260200160002081905550819050919050565b60026020528060005260406000206000915090505481565b6000600260003373ffffffffffffffffffffffffffffffffffffffff1673ffffffffffffffffffffffffffffffffffffffff168152602001908152602001600020549050905600a165627a7a72305820266ba0468b7913804bfb78138be5dd41ad2e7e4e79019f3278bdcd20196fe90c0029",
  "source": " pragma solidity ^0.4.24;\n\ncontract Auction {\n\n  /**************\n   * Structures *\n   **************/\n\n  /*********************\n   * Storage Variables *\n   *********************/\n\n  /* Static */\n\n  // Utility offering rate.\n  uint utilityRate = 12;\n\n  // Utility buyback rate.\n  uint buybackRate = 3;\n\n  /* State */\n\n  // Bids in current auction\n  mapping (address => uint) public bids;\n\n  /*************\n   * Functions *\n   *************/\n\n  // Place bid.\n  function bid(uint value) public returns (uint) {\n    // Bid must be between the buyback rate and grid price\n    require(buybackRate < value && value < utilityRate);\n    // Place bid\n    bids[msg.sender] = value;\n    // Return bid value\n    return value;\n  }\n\n  // View bid.\n  function get() public view returns (uint) {\n    // Return bid for this member\n    return bids[msg.sender];\n  }\n\n  // Choose winner.\n}",
  "sourcePath": "/Users/ParkerWild/github/p2p-energy-dapp/contracts/Auction.sol",
  "compiler": {
    "name": "solc",
    "version": "0.4.24+commit.e67f0147.Emscripten.clang"
  },
  "schemaVersion": "3.0.5",
  "updatedAt": "2019-04-20T18:11:07.923Z",
  "devdoc": {
    "methods": {}
  },
  "userdoc": {
    "methods": {
      "bid(uint256)": {
        "notice": "*********** Functions *************"
      }
    }
  }
}