{
  "contractName": "Auction",
  "abi": [
    {
      "constant": true,
      "inputs": [
        {
          "name": "",
          "type": "uint256"
        }
      ],
      "name": "members",
      "outputs": [
        {
          "name": "",
          "type": "address"
        }
      ],
      "payable": false,
      "stateMutability": "view",
      "type": "function",
      "signature": "0x5daf08ca"
    },
    {
      "constant": true,
      "inputs": [
        {
          "name": "",
          "type": "address"
        }
      ],
      "name": "bids",
      "outputs": [
        {
          "name": "",
          "type": "uint256"
        }
      ],
      "payable": false,
      "stateMutability": "view",
      "type": "function",
      "signature": "0x62ea82db"
    },
    {
      "constant": false,
      "inputs": [
        {
          "name": "value",
          "type": "uint256"
        }
      ],
      "name": "bid",
      "outputs": [
        {
          "name": "",
          "type": "uint256"
        }
      ],
      "payable": false,
      "stateMutability": "nonpayable",
      "type": "function",
      "signature": "0x454a2ab3"
    },
    {
      "constant": true,
      "inputs": [],
      "name": "get",
      "outputs": [
        {
          "name": "",
          "type": "uint256"
        }
      ],
      "payable": false,
      "stateMutability": "view",
      "type": "function",
      "signature": "0x6d4ce63c"
    }
  ],
  "bytecode": "0x60806040526001600a55600a600b5534801561001a57600080fd5b506102c28061002a6000396000f300608060405260043610610062576000357c0100000000000000000000000000000000000000000000000000000000900463ffffffff168063454a2ab3146100675780635daf08ca146100a857806362ea82db146101155780636d4ce63c1461016c575b600080fd5b34801561007357600080fd5b5061009260048036038101908080359060200190929190505050610197565b6040518082815260200191505060405180910390f35b3480156100b457600080fd5b506100d360048036038101908080359060200190929190505050610202565b604051808273ffffffffffffffffffffffffffffffffffffffff1673ffffffffffffffffffffffffffffffffffffffff16815260200191505060405180910390f35b34801561012157600080fd5b50610156600480360381019080803573ffffffffffffffffffffffffffffffffffffffff169060200190929190505050610237565b6040518082815260200191505060405180910390f35b34801561017857600080fd5b5061018161024f565b6040518082815260200191505060405180910390f35b600081600a541080156101ab5750600b5482105b15156101b657600080fd5b81600c60003373ffffffffffffffffffffffffffffffffffffffff1673ffffffffffffffffffffffffffffffffffffffff16815260200190815260200160002081905550819050919050565b600081600a8110151561021157fe5b016000915054906101000a900473ffffffffffffffffffffffffffffffffffffffff1681565b600c6020528060005260406000206000915090505481565b6000600c60003373ffffffffffffffffffffffffffffffffffffffff1673ffffffffffffffffffffffffffffffffffffffff168152602001908152602001600020549050905600a165627a7a723058206e6f2d909dc1ac26c71ee19a2ff09d285b2e12c13f40bdf15b2b1008816d99ac0029",
  "source": " pragma solidity ^0.4.24;\n\ncontract Auction {\n\n  /**************\n   * Structures *\n   **************/\n\n  /*********************\n   * Storage Variables *\n   *********************/\n\n  /* Static */\n\n  // Members of the micro-grid\n  address[10] public members;\n\n  // Utility buyback rate\n  uint buybackRate = 1;\n\n  // Utility offering price\n  uint utilityPrice = 10;\n\n  /* State */\n\n  // Bids in current auction\n  mapping (address => uint) public bids;\n\n  /*************\n   * Functions *\n   *************/\n\n  // Place bid\n  function bid(uint value) public returns (uint) {\n    // Bid must be between the buyback rate and grid price\n    require(buybackRate < value && value < utilityPrice);\n    // Place bid\n    bids[msg.sender] = value;\n    // Return bid value\n    return value;\n  }\n\n  // View bid\n  function get() public view returns (uint) {\n    // Return bid for this member\n    return bids[msg.sender];\n  }\n\n  // Withdraw funds\n  /* function withdraw(uint value) public returns (uint) {\n\n  } */\n}",
  "sourcePath": "/Users/ParkerWild/github/p2p-energy-dapp/contracts/Auction.sol",
  "compiler": {
    "name": "solc",
    "version": "0.4.24+commit.e67f0147.Emscripten.clang"
  },
  "schemaVersion": "3.0.5",
  "updatedAt": "2019-04-05T19:14:09.488Z",
  "devdoc": {
    "methods": {}
  },
  "userdoc": {
    "methods": {
      "bid(uint256)": {
        "notice": "*********** Functions *************"
      }
    }
  }
}