{
  "contractName": "Auction1B1P",
  "abi": [
    {
      "constant": true,
      "inputs": [],
      "name": "timestampEnd",
      "outputs": [
        {
          "name": "",
          "type": "uint256"
        }
      ],
      "payable": false,
      "stateMutability": "view",
      "type": "function"
    },
    {
      "constant": true,
      "inputs": [],
      "name": "initialPrice",
      "outputs": [
        {
          "name": "",
          "type": "bool"
        }
      ],
      "payable": false,
      "stateMutability": "view",
      "type": "function"
    },
    {
      "constant": true,
      "inputs": [],
      "name": "beneficiary",
      "outputs": [
        {
          "name": "",
          "type": "address"
        }
      ],
      "payable": false,
      "stateMutability": "view",
      "type": "function"
    },
    {
      "constant": true,
      "inputs": [],
      "name": "utilityBuyBackRate",
      "outputs": [
        {
          "name": "",
          "type": "uint256"
        }
      ],
      "payable": false,
      "stateMutability": "view",
      "type": "function"
    },
    {
      "constant": true,
      "inputs": [
        {
          "name": "",
          "type": "address"
        }
      ],
      "name": "bids",
      "outputs": [
        {
          "name": "",
          "type": "uint256"
        }
      ],
      "payable": false,
      "stateMutability": "view",
      "type": "function"
    },
    {
      "constant": true,
      "inputs": [],
      "name": "increaseTimeIfBidBeforeEnd",
      "outputs": [
        {
          "name": "",
          "type": "uint256"
        }
      ],
      "payable": false,
      "stateMutability": "view",
      "type": "function"
    },
    {
      "constant": true,
      "inputs": [],
      "name": "owner",
      "outputs": [
        {
          "name": "",
          "type": "address"
        }
      ],
      "payable": false,
      "stateMutability": "view",
      "type": "function"
    },
    {
      "constant": true,
      "inputs": [],
      "name": "finalized",
      "outputs": [
        {
          "name": "",
          "type": "bool"
        }
      ],
      "payable": false,
      "stateMutability": "view",
      "type": "function"
    },
    {
      "constant": true,
      "inputs": [],
      "name": "increaseTimeBy",
      "outputs": [
        {
          "name": "",
          "type": "uint256"
        }
      ],
      "payable": false,
      "stateMutability": "view",
      "type": "function"
    },
    {
      "constant": true,
      "inputs": [
        {
          "name": "",
          "type": "uint256"
        }
      ],
      "name": "accountsList",
      "outputs": [
        {
          "name": "",
          "type": "address"
        }
      ],
      "payable": false,
      "stateMutability": "view",
      "type": "function"
    },
    {
      "constant": true,
      "inputs": [],
      "name": "winner",
      "outputs": [
        {
          "name": "",
          "type": "address"
        }
      ],
      "payable": false,
      "stateMutability": "view",
      "type": "function"
    },
    {
      "inputs": [
        {
          "name": "_utilityBuyBackRate",
          "type": "uint256"
        },
        {
          "name": "_timestampEnd",
          "type": "uint256"
        },
        {
          "name": "_beneficiary",
          "type": "address"
        }
      ],
      "payable": false,
      "stateMutability": "nonpayable",
      "type": "constructor"
    },
    {
      "payable": true,
      "stateMutability": "payable",
      "type": "fallback"
    },
    {
      "anonymous": false,
      "inputs": [
        {
          "indexed": true,
          "name": "bidder",
          "type": "address"
        },
        {
          "indexed": false,
          "name": "value",
          "type": "uint256"
        },
        {
          "indexed": false,
          "name": "timestamp",
          "type": "uint256"
        }
      ],
      "name": "BidEvent",
      "type": "event"
    },
    {
      "anonymous": false,
      "inputs": [
        {
          "indexed": true,
          "name": "bidder",
          "type": "address"
        },
        {
          "indexed": false,
          "name": "value",
          "type": "uint256"
        },
        {
          "indexed": false,
          "name": "timestamp",
          "type": "uint256"
        }
      ],
      "name": "Refund",
      "type": "event"
    },
    {
      "constant": true,
      "inputs": [],
      "name": "getAccountListLenght",
      "outputs": [
        {
          "name": "",
          "type": "uint256"
        }
      ],
      "payable": false,
      "stateMutability": "view",
      "type": "function"
    },
    {
      "constant": false,
      "inputs": [],
      "name": "bid",
      "outputs": [],
      "payable": true,
      "stateMutability": "payable",
      "type": "function"
    },
    {
      "constant": false,
      "inputs": [],
      "name": "finalize",
      "outputs": [],
      "payable": false,
      "stateMutability": "nonpayable",
      "type": "function"
    },
    {
      "constant": false,
      "inputs": [],
      "name": "refund",
      "outputs": [],
      "payable": false,
      "stateMutability": "nonpayable",
      "type": "function"
    },
    {
      "constant": false,
      "inputs": [
        {
          "name": "addr",
          "type": "address"
        }
      ],
      "name": "refundOnBehalf",
      "outputs": [],
      "payable": false,
      "stateMutability": "nonpayable",
      "type": "function"
    }
  ],
  "bytecode": "0x608060405260018060006101000a81548160ff0219169083151502179055506000600360146101000a81548160ff021916908315150217905550620151806008556201518060095534801561005357600080fd5b506040516060806112e48339810180604052810190808051906020019092919080519060200190929190805190602001909291905050504282111515610127576040517f08c379a00000000000000000000000000000000000000000000000000000000081526004018080602001828103825260288152602001807f656e64206f66207468652061756374696f6e206d75737420626520696e20746881526020017f652066757475726500000000000000000000000000000000000000000000000081525060400191505060405180910390fd5b33600460006101000a81548173ffffffffffffffffffffffffffffffffffffffff021916908373ffffffffffffffffffffffffffffffffffffffff160217905550826000819055508160028190555080600360006101000a81548173ffffffffffffffffffffffffffffffffffffffff021916908373ffffffffffffffffffffffffffffffffffffffff16021790555050505061111b806101c96000396000f3006080604052600436106100e6576000357c0100000000000000000000000000000000000000000000000000000000900463ffffffff168063041abd9f146101075780631998aeef146101325780631d0806ae1461013c57806338af3eed1461016b5780634bb278f3146101c25780634d4d52aa146101d95780635104cb5c14610204578063590e1ae31461024757806362ea82db1461025e57806366aef95b146102b55780638da5cb5b146102e0578063b3f05b9714610337578063bd47c1a214610366578063c6eeeb0414610391578063cf9b3c8d146103bc578063dfbf53ae14610429575b60003414156100fc576100f7610480565b610105565b61010461048b565b5b005b34801561011357600080fd5b5061011c6108dd565b6040518082815260200191505060405180910390f35b61013a61048b565b005b34801561014857600080fd5b506101516108e3565b604051808215151515815260200191505060405180910390f35b34801561017757600080fd5b506101806108f6565b604051808273ffffffffffffffffffffffffffffffffffffffff1673ffffffffffffffffffffffffffffffffffffffff16815260200191505060405180910390f35b3480156101ce57600080fd5b506101d761091c565b005b3480156101e557600080fd5b506101ee610c7d565b6040518082815260200191505060405180910390f35b34801561021057600080fd5b50610245600480360381019080803573ffffffffffffffffffffffffffffffffffffffff169060200190929190505050610c83565b005b34801561025357600080fd5b5061025c610480565b005b34801561026a57600080fd5b5061029f600480360381019080803573ffffffffffffffffffffffffffffffffffffffff169060200190929190505050610d54565b6040518082815260200191505060405180910390f35b3480156102c157600080fd5b506102ca610d6c565b6040518082815260200191505060405180910390f35b3480156102ec57600080fd5b506102f5610d72565b604051808273ffffffffffffffffffffffffffffffffffffffff1673ffffffffffffffffffffffffffffffffffffffff16815260200191505060405180910390f35b34801561034357600080fd5b5061034c610d98565b604051808215151515815260200191505060405180910390f35b34801561037257600080fd5b5061037b610dab565b6040518082815260200191505060405180910390f35b34801561039d57600080fd5b506103a6610db8565b6040518082815260200191505060405180910390f35b3480156103c857600080fd5b506103e760048036038101908080359060200190929190505050610dbe565b604051808273ffffffffffffffffffffffffffffffffffffffff1673ffffffffffffffffffffffffffffffffffffffff16815260200191505060405180910390f35b34801561043557600080fd5b5061043e610dfc565b604051808273ffffffffffffffffffffffffffffffffffffffff1673ffffffffffffffffffffffffffffffffffffffff16815260200191505060405180910390f35b61048933610e22565b565b60025442101515610504576040517f08c379a00000000000000000000000000000000000000000000000000000000081526004018080602001828103825260118152602001807f61756374696f6e2068617320656e64656400000000000000000000000000000081525060200191505060405180910390fd5b6000600660003373ffffffffffffffffffffffffffffffffffffffff1673ffffffffffffffffffffffffffffffffffffffff168152602001908152602001600020541415156105bb576040517f08c379a00000000000000000000000000000000000000000000000000000000081526004018080602001828103825260158152602001807f796f752063616e206f6e6c7920626964206f6e6365000000000000000000000081525060200191505060405180910390fd5b34600660003373ffffffffffffffffffffffffffffffffffffffff1673ffffffffffffffffffffffffffffffffffffffff1681526020019081526020016000208190555060073390806001815401808255809150509060018203906000526020600020016000909192909190916101000a81548173ffffffffffffffffffffffffffffffffffffffff021916908373ffffffffffffffffffffffffffffffffffffffff16021790555050600054600660003373ffffffffffffffffffffffffffffffffffffffff1673ffffffffffffffffffffffffffffffffffffffff1681526020019081526020016000205410151515610744576040517f08c379a000000000000000000000000000000000000000000000000000000000815260040180806020018281038252602e8152602001807f62696420746f6f206c6f772c206d696e696d756d20697320746865207574696c81526020017f6974794275794261636b5261746500000000000000000000000000000000000081525060400191505060405180910390fd5b6008546002540342111561075e5760095442016002819055505b6000600160006101000a81548160ff02191690831515021790555060066000600560009054906101000a900473ffffffffffffffffffffffffffffffffffffffff1673ffffffffffffffffffffffffffffffffffffffff1673ffffffffffffffffffffffffffffffffffffffff16815260200190815260200160002054600660003373ffffffffffffffffffffffffffffffffffffffff1673ffffffffffffffffffffffffffffffffffffffff1681526020019081526020016000205411156108635733600560006101000a81548173ffffffffffffffffffffffffffffffffffffffff021916908373ffffffffffffffffffffffffffffffffffffffff1602179055505b600560009054906101000a900473ffffffffffffffffffffffffffffffffffffffff1673ffffffffffffffffffffffffffffffffffffffff167f8af6b8ce9e717802e71d82fde14340886903c7ba4a5513f0a177b5ae534066bf3442604051808381526020018281526020019250505060405180910390a2565b60025481565b600160009054906101000a900460ff1681565b600360009054906101000a900473ffffffffffffffffffffffffffffffffffffffff1681565b60025442111515610995576040517f08c379a000000000000000000000000000000000000000000000000000000000815260040180806020018281038252600d8152602001807f6e6f7420656e646564207965740000000000000000000000000000000000000081525060200191505060405180910390fd5b3373ffffffffffffffffffffffffffffffffffffffff16600460009054906101000a900473ffffffffffffffffffffffffffffffffffffffff1673ffffffffffffffffffffffffffffffffffffffff16141515610a5a576040517f08c379a000000000000000000000000000000000000000000000000000000000815260040180806020018281038252600a8152602001807f6f6e6c79206f776e65720000000000000000000000000000000000000000000081525060200191505060405180910390fd5b60001515600360149054906101000a900460ff161515141515610ae5576040517f08c379a00000000000000000000000000000000000000000000000000000000081526004018080602001828103825260168152602001807f63616e207769746864726177206f6e6c79206f6e63650000000000000000000081525060200191505060405180910390fd5b60001515600160009054906101000a900460ff161515141515610b96576040517f08c379a00000000000000000000000000000000000000000000000000000000081526004018080602001828103825260248152602001807f63616e207769746864726177206f6e6c7920696620746865726520776572652081526020017f626964730000000000000000000000000000000000000000000000000000000081525060400191505060405180910390fd5b6001600360146101000a81548160ff021916908315150217905550600360009054906101000a900473ffffffffffffffffffffffffffffffffffffffff1673ffffffffffffffffffffffffffffffffffffffff166108fc60066000600560009054906101000a900473ffffffffffffffffffffffffffffffffffffffff1673ffffffffffffffffffffffffffffffffffffffff1673ffffffffffffffffffffffffffffffffffffffff168152602001908152602001600020549081150290604051600060405180830381858888f19350505050158015610c7a573d6000803e3d6000fd5b50565b60005481565b3373ffffffffffffffffffffffffffffffffffffffff16600460009054906101000a900473ffffffffffffffffffffffffffffffffffffffff1673ffffffffffffffffffffffffffffffffffffffff16141515610d48576040517f08c379a000000000000000000000000000000000000000000000000000000000815260040180806020018281038252600a8152602001807f6f6e6c79206f776e65720000000000000000000000000000000000000000000081525060200191505060405180910390fd5b610d5181610e22565b50565b60066020528060005260406000206000915090505481565b60085481565b600460009054906101000a900473ffffffffffffffffffffffffffffffffffffffff1681565b600360149054906101000a900460ff1681565b6000600780549050905090565b60095481565b600781815481101515610dcd57fe5b906000526020600020016000915054906101000a900473ffffffffffffffffffffffffffffffffffffffff1681565b600560009054906101000a900473ffffffffffffffffffffffffffffffffffffffff1681565b6000600560009054906101000a900473ffffffffffffffffffffffffffffffffffffffff1673ffffffffffffffffffffffffffffffffffffffff168273ffffffffffffffffffffffffffffffffffffffff1614151515610eea576040517f08c379a00000000000000000000000000000000000000000000000000000000081526004018080602001828103825260148152602001807f77696e6e65722063616e6e6f7420726566756e6400000000000000000000000081525060200191505060405180910390fd5b6000600660008473ffffffffffffffffffffffffffffffffffffffff1673ffffffffffffffffffffffffffffffffffffffff16815260200190815260200160002054111515610fc7576040517f08c379a000000000000000000000000000000000000000000000000000000000815260040180806020018281038252602a8152602001807f726566756e6473206f6e6c7920616c6c6f77656420696620796f752073656e7481526020017f20736f6d657468696e670000000000000000000000000000000000000000000081525060400191505060405180910390fd5b600660008373ffffffffffffffffffffffffffffffffffffffff1673ffffffffffffffffffffffffffffffffffffffff1681526020019081526020016000205490506000600660008473ffffffffffffffffffffffffffffffffffffffff1673ffffffffffffffffffffffffffffffffffffffff168152602001908152602001600020819055508173ffffffffffffffffffffffffffffffffffffffff166108fc829081150290604051600060405180830381858888f19350505050158015611094573d6000803e3d6000fd5b508173ffffffffffffffffffffffffffffffffffffffff167f73f04af9dcc582a923ec15d3eea990fe34adabfff2879e28d44572e01a54abb68242604051808381526020018281526020019250505060405180910390a250505600a165627a7a723058202b987a8cc409c4057b660e31353c70102378829b4dcbd7cc5280f6099174eca50029",
  "source": "pragma solidity ^0.4.24;\n\n// THIS IS A SEALED-BID FIRST PRICE AUCTION\ncontract Auction1B1P {\n  //string public instructions; // will be used for delivery address or email\n  uint public utilityBuyBackRate;\n  bool public initialPrice = true; // at first asking price is OK, then +25% required\n  uint public timestampEnd;\n  address public beneficiary;\n  bool public finalized = false;\n\n  address public owner;\n  address public winner;\n  mapping(address => uint) public bids;\n  address[] public accountsList;\n  function getAccountListLenght() public constant returns(uint) { return accountsList.length; } // lenght is not accessible from DApp, exposing convenience method: https://stackoverflow.com/questions/43016011/getting-the-length-of-public-array-variable-getter\n\n  uint public increaseTimeIfBidBeforeEnd = 24 * 60 * 60;\n  uint public increaseTimeBy = 24 * 60 * 60;\n\n  event BidEvent(address indexed bidder, uint value, uint timestamp); // cannot have event and struct with the same name\n  event Refund(address indexed bidder, uint value, uint timestamp);\n\n\n  modifier onlyOwner { require(owner == msg.sender, \"only owner\"); _; }\n  modifier onlyWinner { require(winner == msg.sender, \"only winner\"); _; }\n  modifier ended { require(now > timestampEnd, \"not ended yet\"); _; }\n\n\n  //function setDescription(string _description) public onlyOwner() {\n  //  description = _description;\n  //}\n\n  // TODO: Override this method in the derived functions, think about on-chain / off-chain communication mechanism\n  //function setInstructions(string _instructions) public ended() onlyWinner()  {\n  //  instructions = _instructions;\n  //}\n\n  //constructor(uint _price, string _description, uint _timestampEnd, address _beneficiary) public {\n  constructor(uint _utilityBuyBackRate, uint _timestampEnd, address _beneficiary) public {\n    require(_timestampEnd > now, \"end of the auction must be in the future\");\n    owner = msg.sender;\n    utilityBuyBackRate = _utilityBuyBackRate;\n    //description = _description;\n    timestampEnd = _timestampEnd;\n    beneficiary = _beneficiary;\n  }\n\n  // Same for all the derived contract, it's the implementation of refund() and bid() that differs\n  function() public payable {\n    if (msg.value == 0) {\n      refund();\n    } else {\n      bid();\n    }\n  }\n\n  function bid() public payable {\n    require(now < timestampEnd, \"auction has ended\"); // sending ether only allowed before the end\n    require(bids[msg.sender] == 0, \"you can only bid once\");\n\n\n    bids[msg.sender] = msg.value;\n    accountsList.push(msg.sender); // this is the first bid, therefore adding\n\n    require(bids[msg.sender] >= utilityBuyBackRate, \"bid too low, minimum is the utilityBuyBackRate\");\n\n    if (now > timestampEnd - increaseTimeIfBidBeforeEnd) {\n      timestampEnd = now + increaseTimeBy;\n    }\n\n    initialPrice = false;\n    //price = bids[msg.sender]; makes the bid the new low, not needed here\n    if (bids[msg.sender] > bids[winner]) {\n      winner = msg.sender;\n    }\n\n    emit BidEvent(winner, msg.value, now);\n  }\n\n  function finalize() public ended() onlyOwner() {\n    require(finalized == false, \"can withdraw only once\");\n    require(initialPrice == false, \"can withdraw only if there were bids\");\n\n    finalized = true;\n    beneficiary.transfer(bids[winner]);\n  }\n\n  function refund(address addr) private {\n    require(addr != winner, \"winner cannot refund\");\n    require(bids[addr] > 0, \"refunds only allowed if you sent something\");\n\n    uint refundValue = bids[addr];\n    bids[addr] = 0;\n    addr.transfer(refundValue);\n\n    emit Refund(addr, refundValue, now);\n  }\n\n  function refund() public {\n    refund(msg.sender);\n  }\n\n  function refundOnBehalf(address addr) public onlyOwner() {\n    refund(addr);\n  }\n}\n",
  "sourcePath": "/Users/ParkerWild/github/p2p-energy-dapp/contracts/Auction1B1P.sol",
  "compiler": {
    "name": "solc",
    "version": "0.4.24+commit.e67f0147.Emscripten.clang"
  },
  "schemaVersion": "3.0.5",
  "updatedAt": "2019-03-25T00:41:23.746Z",
  "devdoc": {
    "methods": {}
  },
  "userdoc": {
    "methods": {}
  }
}